:020000040800F2
:10000000FFFF0220492000089920000899200008DD
:10001000992000089920000899200008000000009D
:10002000000000000000000000000000992000080F
:10003000992000080000000099200008992000087D
:1000400099200008992000089920000899200008AC
:10005000992000089920000899200008992000089C
:10006000992000089920000899200008992000088C
:10007000992000089920000899200008992000087C
:10008000992000089920000899200008992000086C
:10009000992000089920000899200008992000085C
:1000A000992000089920000899200008992000084C
:1000B000992000089920000899200008992000083C
:1000C000992000089920000899200008992000082C
:1000D000992000089920000899200008992000081C
:1000E000992000089920000899200008992000080C
:1000F00099200008992000089920000899200008FC
:1001000099200008992000089920000899200008EB
:1001100099200008992000089920000899200008DB
:1001200099200008992000089920000899200008CB
:1001300099200008992000089920000899200008BB
:1001400099200008992000089920000899200008AB
:10015000992000089920000899200008992000089B
:10016000992000089920000899200008992000088B
:10017000992000089920000899200008000000003C
:10018000992000089920000899200008992000086B
:10019000992000089920000899200008992000085B
:0C01A00099200008992000089920000810
:1001AC0010B5054C237833B9044B13B10448AFF3A5
:1001BC0000800123237010BD4004002000000000CB
:1001CC009C200008084B10B51BB108480849AFF338
:1001DC0000800848036803B910BD074B002BFBD007
:1001EC00BDE81040184700BF000000009C2000082C
:1001FC0044040020400400200000000080B485B0BE
:10020C0000AFF860B9607A603B60FB68BA681A604E
:10021C00FB687A685A60FB683A689A60FB68BA694E
:10022C00DA60FB68FA691A611437BD465DF8047B25
:10023C00704700BF80B58CB002AF334BFB6100231D
:10024C003B6201F0B5FC034687F827303B6A002B74
:10025C0014D097F82730022BFBD002202A4940F209
:10026C00DF724FF0000301F04BFB034687F8273099
:10027C0097F82730022BFBD000233B623B6A002B04
:10028C001CD007F1080201230093022301931046AE
:10029C00002100221223FFF7B1FF97F82730022B21
:1002AC00FBD007F108023B1D1046194600F02EF852
:1002BC0097F82730022BFBD000233B623B6A002BC4
:1002CC001CD007F10802012300930223019310466E
:1002DC00012100220023FFF791FF97F82730022B12
:1002EC00FBD007F108023B1D1046194600F00EF832
:1002FC0097F82730022BFBD000233B6201F072FCF5
:10030C00034687F827309CE70000140880B584B0BA
:10031C0000AF786039600123FB730023BB60324B64
:10032C001B7E012B01D102235AE02F4B01221A769E
:10033C004CF2503001F0B2FC0346FB73FB7B002BFC
:10034C004AD13B684FF0FF321A607B681B68012B67
:10035C0017D17B681B69DAB27B685B68104619465B
:10036C0000F0CCF94CF2503001F098FC0346FB73D2
:10037C001E4A1E4B1B6923F4004323F00403136134
:10038C0028E07B689B68BB601CE07B681B69DBB268
:10039C00B868194600F0EAF94CF2503001F07EFCD6
:1003AC000346FB73114A114B1B6923F0FA031361CB
:1003BC00FB7B002B03D03B68BA681A600AE0BB6871
:1003CC000133BB607B68DA687B689B681A44BB6846
:1003DC009A42DAD800F06CFC034B00221A76FB7BB5
:1003EC0018461037BD4680BD60040020003C02401A
:1003FC0080B584B000AF78600023FB73254B1B7E67
:10040C00012B01D1022340E0224B01221A76224A11
:10041C00214B1B6943F0807313611F4A1E4B1B69F0
:10042C0043F0007313611C4BF322DA607B681B688A
:10043C00012B10D1174B02221A707B685B68154A8E
:10044C0013617B681B69DAB27B685B6810461946DE
:10045C0000F054F918E00F4B01221A707B68DB682E
:10046C000C4A53607B689B680A4AD3607B681B69A3
:10047C00DAB2084B1A727B689A687B681B69DBB22C
:10048C001046194600F072F9FB7B18461037BD4632
:10049C0080BD00BF60040020003C024080B584B0E9
:1004AC0000AF78600123FB73334B1B7E012B01D112
:1004BC0002235DE0304B01221A767B681B6803F047
:1004CC000103002B18D07B685B68012B0AD17B6879
:1004DC009A687B68DB681046194600F0A3F903465E
:1004EC00FB7309E07B689A687B68DB6810461946E9
:1004FC0000F006FA0346FB737B681B6803F00203EB
:10050C00002B07D07B681B69DBB2184600F01CFB84
:10051C000346FB737B681B6803F00403002B15D0A8
:10052C007B681B7E03F02003D9B27B681B7E03F033
:10053C004003DAB27B681B7E23F07F03DBB20846F4
:10054C0011461A4600F01AFB0346FB737B681B68C6
:10055C0003F00803002B07D07B685B69DBB21846FD
:10056C0000F03CFB0346FB73034B00221A76FB7B2B
:10057C0018461037BD4680BD6004002080B582B09F
:10058C0000AF78607B680F221A6000F055FB0346C1
:10059C001A467B689A6000F05BFB03461A467B6840
:1005AC001A6100F039FB03461A467B681A7600F094
:1005BC006FFB03461A467B685A610837BD4680BDFF
:1005CC0080B584B000AF78600123FB737B681B6837
:1005DC0003F00103002B22D07B685B68012B0FD149
:1005EC007B689B8919467B68DB891A467B689B680C
:1005FC00084611461A4600F011FA0346FB730EE04A
:10060C007B689B8919467B68DB891A467B689B68EB
:10061C00084611461A4600F049FA0346FB737B68FC
:10062C001B6803F00203002B06D07B681B7C18466A
:10063C0000F0CCF90346FB73FB7B18461037BD4624
:10064C0080BD00BF80B483B000AF7860094B1B88BD
:10065C009AB27B689A81084B1B889AB27B68DA81C4
:10066C00064B1B78DAB27B681A740C37BD465DF802
:10067C00047B7047163C02401A3C0240143C02407A
:10068C0080B483B000AFFF23FB71094B1B78DBB246
:10069C0003F07F03FB71064AFB7963F07F03DBB247
:1006AC001370002318460C37BD465DF8047B704769
:1006BC00173C024080B483B000AFFF23FB71084BA2
:1006CC001B78DBB203F07F03FB71054AFB791370D7
:1006DC00002318460C37BD465DF8047B704700BFFD
:1006EC00173C024080B400AF034B1B889BB21846EA
:1006FC00BD465DF8047B70471A3C024080B483B061
:10070C0000AF03463960FB71174A174B1B6923F482
:10071C00407313613B68032B08D1134A124B1B69BE
:10072C0043F4004343F0040313610FE03B68012BD7
:10073C0006D10D4A0C4B1B6943F00403136105E011
:10074C00094A094B1B6943F4004313610649064BE4
:10075C001A69FB791B02134343F480330B610C378A
:10076C00BD465DF8047B7047003C024080B489B004
:10077C0000AF78600B46FB700023FB61FB78002B0D
:10078C0002D10023FB6110E0FB78012B03D14FF465
:10079C008073FB6109E0FB78022B03D14FF40073EB
:1007AC00FB6102E04FF44073FB617B680B2B02D9B9
:1007BC007B6804337B601A4A194B1B6923F4407322
:1007CC0013611749164B1A69FB6913430B61144AE1
:1007DC00134B1B6923F0F8031361F823BB61BB694E
:1007EC0093FAA3F37B617B693B613B69B3FA83F3B7
:1007FC00FB60FB68DBB21A467B68934043F0020354
:10080C000749074A126913430B61054A044B1B69DC
:10081C0043F4803313612437BD465DF8047B704785
:10082C00003C024080B584B000AF78603960002392
:10083C00FB734CF2503001F031FA0346FB73FB7B37
:10084C00002B52D17B682B4A934205D13B68012B7C
:10085C0006D03B68032B03D07B68B3F5805F1CD2BA
:10086C007B68244A93420CD12349234B1B889AB2B0
:10087C007B681B0B9BB2DB439BB213409BB20B8080
:10088C0017E01D491C4B1B889AB27B689BB2DB435B
:10089C009BB213409BB20B800BE01849174B1B8883
:1008AC009AB27B681B0B9BB2DB439BB213409BB28F
:1008BC000B807B680F4A934217D13B68032B14D1F2
:1008CC004CF2503001F0EAF90346FB73FB7B002B32
:1008DC000BD10A49094B1B889AB27B681B0B9BB244
:1008EC00DB439BB213409BB20B80FB7B184610374B
:1008FC00BD4680BD00F0FF00163C02401A3C024091
:10090C0080B584B000AF786039600023FB734CF283
:10091C00503001F0C3F90346FB73FB7B002B4AD12B
:10092C007B68274A934205D13B68012B06D03B6874
:10093C00032B03D07B68B3F5805F18D27B68204A09
:10094C0093420AD11F491F4B1B889AB27B681B0B21
:10095C009BB213439BB20B8013E01A49194B1B88B3
:10096C009AB27B689BB213439BB20B8009E0164989
:10097C00154B1B889AB27B681B0B9BB213439BB223
:10098C000B807B680E4A934215D13B68032B12D126
:10099C004CF2503001F082F90346FB73FB7B002BC9
:1009AC0009D10949084B1B889AB27B681B0B9BB277
:1009BC0013439BB20B80FB7B18461037BD4680BDA2
:1009CC0000F0FF00163C02401A3C024080B584B097
:1009DC0000AF0346FB710023FB734CF2503001F067
:1009EC005DF90346FB73FB7B002B0FD10A4A0A4BC4
:1009FC001B78DBB223F01003DBB213700649064BF5
:100A0C001B78DAB2FB791343DBB20B70FB7B184615
:100A1C001037BD4680BD00BF143C024080B586B087
:100A2C0000AFF860B9607A600023FB754CF250306F
:100A3C0001F034F90346FB75FB7D002B2DD17B684F
:100A4C00012B02D07B68032B09D11649154B1B884F
:100A5C009AB2FB689BB213439BB20B8008E012491D
:100A6C00114B1B889AB2BB689BB213439BB20B8091
:100A7C007B68032B11D14CF2503001F00FF9034677
:100A8C00FB75FB7D002B08D10749074B1B889AB2DD
:100A9C00BB689BB213439BB20B80FB7D1846183787
:100AAC00BD4680BD163C02401A3C024080B586B063
:100ABC0000AFF860B9607A600023FB754CF25030DF
:100ACC0001F0ECF80346FB75FB7D002B33D17B6802
:100ADC00012B02D07B68032B0BD11949184B1B88B7
:100AEC009AB2FB689BB2DB439BB213409BB20B8068
:100AFC000AE01449134B1B889AB2BB689BB2DB43C8
:100B0C009BB213409BB20B807B68032B13D14CF22E
:100B1C00503001F0C3F80346FB75FB7D002B0AD166
:100B2C000849084B1B889AB2BB689BB2DB439BB24B
:100B3C0013409BB20B80FB7D18461837BD4680BD19
:100B4C00163C02401A3C024080B584B000AF03460C
:100B5C00FB710023FB734CF2503001F09FF80346FD
:100B6C00FB73FB7B002B02D1034AFB791370FB7BDD
:100B7C0018461037BD4680BD153C024080B584B088
:100B8C0000AF0346FB710B46BB7113467B71FF2311
:100B9C00FB730023BB734CF2503001F07FF803461B
:100BAC00BB73BB7B002B11D10B4B1B78DBB203F05F
:100BBC001F03FB730849BA79FB7B1343DAB27B79C9
:100BCC001343DAB2FB791343DBB20B70BB7B1846D1
:100BDC001037BD4680BD00BF143C024080B483B0CA
:100BEC0000AF0346FB710B4A0A4B1B78DBB223F0B8
:100BFC000C03DBB213700749064B1B78DAB2FB7996
:100C0C001343DBB20B70002318460C37BD465DF85E
:100C1C00047B7047143C024080B400AF054B5B6909
:100C2C00DBB223F01F03DBB21846BD465DF8047B34
:100C3C00704700BF003C024080B400AF034B1B88E0
:100C4C009BB21846BD465DF8047B7047163C0240CB
:100C5C0080B483B000AFAA23FB710C4B1B78DBB2C2
:100C6C00CC2B02D1CC23FB7109E0084B1B78DBB2F7
:100C7C00552B02D15523FB7101E0AA23FB71FB79A3
:100C8C0018460C37BD465DF8047B7047153C024096
:100C9C0080B400AF054B1B78DBB203F00C03DBB266
:100CAC001846BD465DF8047B704700BF143C0240FB
:100CBC0080B400AF1F4B1B6803F40073002B17D0DC
:100CCC001C4A1C4B1B6823F400731360194A194B04
:100CDC001B6843F400631360164A164B1B6823F41D
:100CEC0000631360134A134B1B6843F400731360C7
:100CFC00104B1B6803F48063002B17D00D4A0D4B6F
:100D0C001B6823F4806313600A4A0A4B1B6843F484
:100D1C0080531360074A074B1B6823F480531360FE
:100D2C00044A044B1B6843F480631360BD465DF8B2
:100D3C00047B7047003C024080B500AF0E4A0E4B5E
:100D4C001B6843F4007313600B4A0B4B1B6843F492
:100D5C0080631360084A084B1B6843F4807313606C
:100D6C00032000F06DFB0F2000F040F800F032F88B
:100D7C000023184680BD00BF003C024080B500AF88
:100D8C00134B4FF0FF321A62114B00221A62104BB8
:100D9C004FF0FF325A620E4B00225A620C4B4FF04E
:100DAC00FF321A610A4B00221A61094B4FF0FF32D5
:100DBC005A61074B00225A61054B4FF0FF329A6182
:100DCC00034B00229A6100F00BF80023184680BDFB
:100DDC000038024080B400AFBD465DF8047B70471C
:100DEC0080B400AFBD465DF8047B704780B582B01F
:100DFC0000AF7860094B1B68094AA2FB03239B09CF
:100E0C00184600F065FB4FF0FF307968002200F0C7
:100E1C0021FB002318460837BD4680BD000000208A
:100E2C00D34D621080B400AF044B1B680133034AEE
:100E3C001360BD465DF8047B704700BF5C04002066
:100E4C0080B400AF034B1B681846BD465DF8047BAD
:100E5C00704700BF5C04002080B584B000AF7860A0
:100E6C000023FB60FFF7ECFFF86000BFFFF7E8FF23
:100E7C000246FB68D21A7B689A42F7D31037BD46FC
:100E8C0080BD00BF80B400AF044A044B1B6823F044
:100E9C0002031360BD465DF8047B704710E000E070
:100EAC0080B400AF044A044B1B6843F00203136088
:100EBC00BD465DF8047B704710E000E080B400AFE5
:100ECC00024B1846BD465DF8047B704700000501D7
:100EDC0080B400AF034B1B681B0C1846BD465DF875
:100EEC00047B7047002004E080B400AF044B1B6807
:100EFC00C3F30B031846BD465DF8047B704700BF77
:100F0C00002004E080B400AF044A044B5B6843F05B
:100F1C0001035360BD465DF8047B7047002004E07C
:100F2C0080B400AF044A044B5B6823F001035360A8
:100F3C00BD465DF8047B7047002004E080B400AF30
:100F4C00044A044B5B6843F002035360BD465DF8F2
:100F5C00047B7047002004E080B400AF044A044BCB
:100F6C005B6823F002035360BD465DF8047B704759
:100F7C00002004E080B400AF044A044B5B6843F0EB
:100F8C0004035360BD465DF8047B7047002004E009
:100F9C0080B400AF044A044B5B6823F00403536035
:100FAC00BD465DF8047B7047002004E080B485B03A
:100FBC0000AF0123FB60FB6893FAA3F3BB60BB6833
:100FCC007B607B68B3FA83F33B603B68DBB21A4609
:100FDC00054B13449B001A46012313601437BD467E
:100FEC005DF8047B704700BF00C1891080B485B0E8
:100FFC0000AF0123FB60FB6893FAA3F3BB60BB68F3
:10100C007B607B68B3FA83F33B603B68DBB21A46C8
:10101C00054B13449B001A46002313601437BD463E
:10102C005DF8047B704700BF00C1891080B485B0A7
:10103C0000AF4FF48073FB60FB6893FAA3F3BB60C3
:10104C00BB687B607B68B3FA83F33B603B68DBB2C5
:10105C0003F1845303F51C239B001A4601231360F0
:10106C001437BD465DF8047B704700BF80B485B073
:10107C0000AF4FF48073FB60FB6893FAA3F3BB6083
:10108C00BB687B607B68B3FA83F33B603B68DBB285
:10109C0003F1845303F51C239B001A4600231360B1
:1010AC001437BD465DF8047B704700BF80B485B033
:1010BC0000AF78607B6803F00703FB600C4BDB68C8
:1010CC00BB60BA684FF6FF031340BB60FB681A02A3
:1010DC00BB68134343F0BF6343F40033BB60044A63
:1010EC00BB68D3601437BD465DF8047B704700BF06
:1010FC0000ED00E080B400AF044BDB6803F4E06368
:10110C001B0A1846BD465DF8047B704700ED00E0F5
:10111C0080B483B000AF0346FB71084997F90730E0
:10112C005B09FA7902F01F02012000FA02F241F881
:10113C0023200C37BD465DF8047B704700E100E0CE
:10114C0080B483B000AF0346FB71094997F90730AF
:10115C005B09FA7902F01F02012000FA02F2203337
:10116C0041F823200C37BD465DF8047B704700BF67
:10117C0000E100E080B483B000AF0346FB710C4A81
:10118C0097F907305B09403352F82330FA7902F0B3
:10119C001F02012101FA02F21340002B01D001239E
:1011AC0000E0002318460C37BD465DF8047B704701
:1011BC0000E100E080B483B000AF0346FB71094945
:1011CC0097F907305B09FA7902F01F02012000FA47
:1011DC0002F2403341F823200C37BD465DF8047B06
:1011EC00704700BF00E100E080B483B000AF03465D
:1011FC00FB71094997F907305B09FA7902F01F0274
:10120C00012000FA02F2603341F823200C37BD466E
:10121C005DF8047B704700BF00E100E080B483B050
:10122C0000AF0346FB710C4A97F907305B0980331A
:10123C0052F82330FA7902F01F02012101FA02F26E
:10124C001340002B01D0012300E0002318460C377B
:10125C00BD465DF8047B704700E100E080B483B0CC
:10126C0000AF03463960FB7197F90730002B0BDA9E
:10127C000D49FB7903F00F03043B3A68D2B212011B
:10128C00D2B20B441A7609E0084997F907303A684C
:10129C00D2B21201D2B20B4483F800230C37BD46F4
:1012AC005DF8047B704700BF00ED00E000E100E05A
:1012BC0080B483B000AF0346FB7197F90730002B65
:1012CC000ADA0D4AFB7903F00F03043B13441B7E2F
:1012DC00DBB21B09DBB208E0084A97F9073013446C
:1012EC0093F80033DBB21B09DBB218460C37BD4652
:1012FC005DF8047B704700BF00ED00E000E100E00A
:10130C0080B489B000AFF860B9607A60FB6803F014
:10131C000703FB61FB69C3F10703042B28BF0423FC
:10132C00BB61FB690433062B02D9FB69033B00E06C
:10133C0000237B61BB69012202FA03F3013B1A46CD
:10134C00BB681A407B699A407B69012101FA03F35F
:10135C00013B19467B680B40134318462437BD46A6
:10136C005DF8047B704700BF80B489B000AFF860B3
:10137C00B9607A603B60BB6803F00703FB61FB69F3
:10138C00C3F10703042B28BF0423BB61FB6904339F
:10139C00062B02D9FB69033B00E000237B617B69D0
:1013AC00FA6822FA03F3BA69012101FA02F2013A4E
:1013BC001A407B681A607B69012202FA03F3013B35
:1013CC001A46FB681A403B681A602437BD465DF824
:1013DC00047B704780B400AFBFF34F8F0549054BBA
:1013EC00DB6803F4E062044B1343CB60BFF34F8F15
:1013FC00FEE700BF00ED00E00400FA0580B582B006
:10140C0000AF78607B68013BB3F1807F01D301238F
:10141C000FE00A4A7B68013B53604FF0FF300F210D
:10142C00FFF71CFF054B00229A60044B07221A6041
:10143C00002318460837BD4680BD00BF10E000E011
:10144C0080B582B000AF78607868FFF72FFE083760
:10145C00BD4680BD80B586B000AF0346B9607A60EA
:10146C00FB7300237B61FFF745FE78617869B968EF
:10147C007A68FFF745FF024697F90F301846114678
:10148C00FFF7ECFE1837BD4680BD00BF80B582B0BB
:10149C0000AF0346FB7197F907301846FFF738FE8B
:1014AC000837BD4680BD00BF80B582B000AF034693
:1014BC00FB7197F907301846FFF742FE0837BD4617
:1014CC0080BD00BF80B500AFFFF784FF80BD00BFBB
:1014DC0080B582B000AF78607868FFF78FFF034665
:1014EC0018460837BD4680BD80B483B000AF786025
:1014FC001D4A7B685B7893607B681B78002B28D037
:10150C00194A7B685B68D36017497B681B7B1A0799
:10151C007B68DB7A1B061A437B689B7ADB041A43D5
:10152C007B685B7B9B041A437B689B7B5B041A4345
:10153C007B68DB7B1B041A437B685B7A1B021A43B8
:10154C007B681B7A5B0013437A68127813430B6138
:10155C0005E0054B0022DA60034B00221A610C37C0
:10156C00BD465DF8047B704790ED00E080B500AFA0
:10157C00FFF7C0FD0346184680BD00BF80B584B0A0
:10158C0000AFB9607A603B600346FB7397F90F308C
:10159C001846FFF78DFE03461846B9687A683B6813
:1015AC00FFF7E2FE1037BD4680BD00BF80B582B0AC
:1015BC0000AF0346FB7197F907301846FFF7FAFDA9
:1015CC000837BD4680BD00BF80B582B000AF034672
:1015DC00FB7197F907301846FFF7CCFD0346184608
:1015EC000837BD4680BD00BF80B582B000AF034652
:1015FC00FB7197F907301846FFF7F6FD0837BD4623
:10160C0080BD00BF80B582B000AF0346FB7197F977
:10161C0007301846FFF702FE034618460837BD464A
:10162C0080BD00BF80B483B000AF78607B68042BB2
:10163C0006D1094A084B1B6843F00403136005E00C
:10164C00054A054B1B6823F0040313600C37BD4699
:10165C005DF8047B704700BF10E000E080B500AF80
:10166C0000F002F880BD00BF80B400AFBD465DF84D
:10167C00047B704780B500AF154A154BD3F8883002
:10168C0043F47003C2F88830124A124B1B6843F0C3
:10169C00010313600F4B00229A600E4A0D4B1B681E
:1016AC0023F0847323F4803313600A4B0A4A5A6084
:1016BC00084A084B1B6823F480231360054B002257
:1016CC00DA6000F087F8024B4FF000629A6080BD40
:1016DC0000ED00E0003802401030002480B487B0E8
:1016EC0000AF00233B6100237B610223FB600023DE
:1016FC00BB6002237B60324B9B6803F00C033B61A5
:10170C003B69042B07D0082B09D0002B3FD12D4B64
:10171C002D4A1A603FE02B4B2C4A1A603BE0284BB9
:10172C005B6803F480039B0DBB60254B5B6803F087
:10173C003F037B60BB68002B0DD0244A7B68B2FB57
:10174C00F3F21F4B596847F6C0730B409B0903FB20
:10175C0002F37B610CE01C4A7B68B2FBF3F2184B82
:10176C00596847F6C0730B409B0903FB02F37B617E
:10177C00134B5B6803F440331B0C01335B00FB60C1
:10178C007A69FB68B2FBF3F30E4A136003E00D4B6E
:10179C000D4A1A6000BF0A4B9B6803F0F0031B094B
:1017AC000B4AD35CDBB23B61064B1A683B6922FAED
:1017BC0003F3044A13601C37BD465DF8047B704785
:1017CC0000380240000000200024F40000127A00CF
:1017DC000400002080B483B000AF00237B600023A2
:1017EC003B60434A424B1B6843F480331360404BCD
:1017FC001B6803F400333B607B6801337B603B6800
:10180C00002B04D17B6841F288329342EFD1384BE4
:10181C001B6803F40033002B02D001233B6001E072
:10182C0000233B603B68012B5CD1314A304B1B6C75
:10183C0043F0805313642F4A2E4B1B6843F44043F0
:10184C0013602B4A2A4B9B689360294A284B9B6850
:10185C0043F400439360264A254B9B6843F4A05302
:10186C009360234B244A5A60214A214B1B6843F056
:10187C008073136000BF1E4B1B6803F00073002BBA
:10188C00F9D01C4A1B4B1B6843F48033136000BF18
:10189C00184B5B6803F48033002BF9D0154A154BB9
:1018AC001B6843F40033136000BF124B5B6803F4F6
:1018BC000033002BF9D0114B40F205721A600C4A20
:1018CC000B4B9B6823F003039360094A084B9B68FE
:1018DC0043F00203936000BF054B9B6803F00C03BD
:1018EC00082BF9D10C37BD465DF8047B704700BF5F
:1018FC000038024000700040085A4007003C02408B
:10190C0080B586B000AFF860B960C7E90023012349
:10191C00FB75234B1B7E012B01D102233BE0204B9B
:10192C0001221A764CF2503000F0B8F90346FB75E0
:10193C00FB7D002B2BD1FB68002B05D13B78B868C5
:10194C00194600F055FA16E0FB68012B05D13B88CF
:10195C00B868194600F02AFA0DE0FB68022B05D195
:10196C003B68B868194600F0FFF904E0B868D7E99D
:10197C00002300F0D5F94CF2503000F08FF90346FB
:10198C00FB75084A074B1B6923F001031361044BD9
:10199C0000221A76FB7D18461837BD4680BD00BF65
:1019AC0060040020003C024080B586B000AFF860B7
:1019BC00B960C7E900230023FB75204B1B7E012B6C
:1019CC0001D1022335E01D4B01221A761C4A1C4B17
:1019DC001B6943F080731361194A194B1B6943F05F
:1019EC0000731361154B03221A70144ABB685361C0
:1019FC00FB68002B05D13B78B868194600F0F8F964
:101A0C0016E0FB68012B05D13B88B868194600F03D
:101A1C00CDF90DE0FB68022B05D13B68B86819467F
:101A2C0000F0A2F904E0B868D7E9002300F078F9D7
:101A3C00FB7D18461837BD4680BD00BF60040020F2
:101A4C00003C024080B582B000AF00237B604C4B61
:101A5C00DB6803F4F973B3F5F97F20D1494B1B789C
:101A6C00DBB2012B07D1474BDB687B60454B4FF05A
:101A7C00FF32DA600BE0434B1B78DBB2022B03D155
:101A8C00404B1B697B6002E03E4B5B697B6000F066
:101A9C00CFF9786800F082F83A4B00221A70384B74
:101AAC00DB6803F00103002B4AD0354B0122DA60CE
:101ABC00344B1B78DBB2012B2DD1324B5B68013BD5
:101ACC00304A53602F4B5B68002B15D02D4BDB68D5
:101ADC007B60786800F058F82A4BDB680133294AA0
:101AEC00D360284BDB687B60264B1B7ADBB27868B3
:101AFC001946FEF73BFE23E04FF0FF337B60214A93
:101B0C007B68D3601F4B00221A70FFF7D1F87868FE
:101B1C0000F03AF814E01B4B1B78DBB2022B07D118
:101B2C00FFF7C6F8174B1B69184600F02DF804E0B8
:101B3C00144B5B69184600F027F8124B00221A7000
:101B4C00104B1B78DBB2002B16D10D4A0C4B1B69CA
:101B5C0023F4004323F0FF031361094A084B1B696C
:101B6C0023F080731361064A054B1B6923F0007345
:101B7C001361044B00221A760837BD4680BD00BFA6
:101B8C00003C02406004002080B483B000AF786059
:101B9C000C37BD465DF8047B704700BF80B483B042
:101BAC0000AF78600C37BD465DF8047B704700BF12
:101BBC0080B400AF084B1B69002B07DA064B074AB1
:101BCC005A60054B064A5A60002300E00123184670
:101BDC00BD465DF8047B7047003C0240230167451D
:101BEC00AB89EFCD80B400AF054A054B1B6943F0C0
:101BFC000043136100231846BD465DF8047B704713
:101C0C00003C024080B400AF094B5B6903F0010358
:101C1C00002B07D0064B074A9A60054B064A9A6080
:101C2C00002300E001231846BD465DF8047B704795
:101C3C00003C02403B2A19087F6E5D4C80B400AF1B
:101C4C00054A054B5B6943F00103536100231846B9
:101C5C00BD465DF8047B7047003C024080B500AF88
:101C6C00074A074B1B78DBB243F00203DBB213705D
:101C7C004CF2503000F012F80346184680BD00BFFD
:101C8C00143C024080B400AF034BDB691846BD46E0
:101C9C005DF8047B704700BF6004002080B584B001
:101CAC0000AF78600023FB601B4B0022DA61FFF76A
:101CBC00C7F8F86010E07B68B3F1FF3F0CD07B688D
:101CCC00002B07D0FFF7BCF80246FB68D21A7B68E2
:101CDC009A4201D903231AE0104BDB6803F48033DA
:101CEC00002BE8D10D4BDB6803F00103002B02D075
:101CFC000A4B0122DA60094BDB6803F4F973B3F584
:101D0C00F97F03D100F094F8012300E0002318467A
:101D1C001037BD4680BD00BF60040020003C02406F
:101D2C0080B485B000AFF860C7E900230D4A0D4BB5
:101D3C001B6923F4407313610A4A0A4B1B6943F471
:101D4C0040731361074A074B1B6943F0010313618E
:101D5C00F968D7E90023C1E900231437BD465DF8C3
:101D6C00047B7047003C024080B483B000AF7860C5
:101D7C0039600D4A0C4B1B6923F4407313610A4AFA
:101D8C00094B1B6943F400731361074A064B1B692B
:101D9C0043F0010313617B683A681A600C37BD4647
:101DAC005DF8047B704700BF003C024080B483B0F8
:101DBC0000AF78600B467B800C4A0C4B1B6923F4FC
:101DCC0040731361094A094B1B6943F48073136117
:101DDC00064A064B1B6943F0010313617B687A8842
:101DEC001A800C37BD465DF8047B7047003C0240FE
:101DFC0080B483B000AF78600B46FB700B4A0B4B82
:101E0C001B6923F440731361084A084B1B69136167
:101E1C00064A064B1B6943F0010313617B68FA7891
:101E2C001A700C37BD465DF8047B7047003C0240CD
:101E3C0080B400AF2F4BDB6803F01003002B08D0ED
:101E4C002D4BDB6943F010032B4AD361294B102235
:101E5C00DA60284BDB6803F02003002B08D0264BFC
:101E6C00DB6943F00803244AD361224B2022DA6059
:101E7C00204BDB6803F04003002B08D01E4BDB69C2
:101E8C0043F004031C4AD3611A4B4022DA60194B0D
:101E9C00DB6803F08003002B08D0174BDB6943F0A1
:101EAC000203154AD361134B8022DA60114BDB68B5
:101EBC0003F48073002B09D00F4BDB6943F0010353
:101ECC000D4AD3610B4B4FF48072DA60094BDB681F
:101EDC0003F00203002B08D0074BDB6943F020030F
:101EEC00054AD361034B0222DA60BD465DF8047BE0
:101EFC00704700BF003C02406004002070B50F4EDC
:101F0C000F4D761BB61018BF002405D0013455F8C0
:101F1C00043B9847A642F9D10A4E0B4D761B00F0B4
:101F2C00B7F8B61018BF002406D0013455F8043B9E
:101F3C009847A642F9D170BD70BD00BFBC20000807
:101F4C00BC200008C4200008BC200008024B13B1C0
:101F5C00024800F005B8704700000000791F000827
:101F6C00014600200246034600F016B838B5084B6F
:101F7C00084DED1AAC1018BFED1805D0013C55F802
:101F8C00043D9847002CF9D1BDE8384000F086B8E4
:101F9C00C4200008C82000082DE9F047254C25680E
:101FAC00D5F848410646884692469946CCB36068B7
:101FBC001F2818DC431C7EB104EB80050121C5F8F9
:101FCC0088A0D4F8887101FA00F21743022EC4F8E5
:101FDC008871C5F808911ED00230636044F82080E7
:101FEC000020BDE8F087144B03B34FF4C870AFF377
:101FFC0000800446D0B1D5F84831002780E888002D
:10200C00C5F8484138460123C4F88871C4F88C716E
:10201C00002EE1D0D0E7D4F88C110A43C4F88C21FF
:10202C00DAE705F5A674C5F84841C0E74FF0FF3074
:10203C00BDE8F087B820000800000000DFF834D0BD
:10204C00002103E00C4B5B58435004310B480C4B04
:10205C0042189A42F6D30B4A02E0002342F8043BA2
:10206C00094B9A42F9D3FFF705FBFFF747FFFEF741
:10207C00E1F87047FFFF0220C82000080000002094
:10208C00400400204004002080040020FEE70000F3
:10209C00F8B500BFF8BC08BC9E467047F8B500BF49
:0820AC00F8BC08BC9E46704719
:0820B4004300000018000020A9
:0820BC00591F0008D1010008C2
:0420C400AD01000862
:1020C8000095BA0A000000000000000001020304A5
:1020D80006070809000000000000000004030020B3
:1020E8006C030020D4030020000000000000000062
:1020F80000000000000000000000000000000000D8
:10210800000000000000000000000000B4200008EB
:1021180000000000000000000000000000000000B7
:1021280000000000000000000000000000000000A7
:102138000000000000000000000000000000000097
:102148000000000000000000000000000000000087
:102158000000000000000000000000000000000077
:102168000000000000000000000000000000000067
:102178000000000000000000000000000000000057
:1021880001000000000000000E33CDAB34126DE6F4
:10219800ECDE05000B00000000000000000000005D
:1021A8000000000000000000000000000000000027
:1021B8000000000000000000000000000000000017
:1021C8000000000000000000000000000000000007
:1021D80000000000000000000000000000000000F7
:040000050800204986
:00000001FF
